{
  "contractName": "GambleGameBak",
  "abi": [
    {
      "constant": true,
      "inputs": [],
      "name": "erc",
      "outputs": [
        {
          "name": "",
          "type": "address"
        }
      ],
      "payable": false,
      "stateMutability": "view",
      "type": "function"
    },
    {
      "inputs": [
        {
          "name": "_coinAddress",
          "type": "address"
        }
      ],
      "payable": false,
      "stateMutability": "nonpayable",
      "type": "constructor"
    },
    {
      "constant": true,
      "inputs": [],
      "name": "getbalance",
      "outputs": [
        {
          "name": "",
          "type": "address"
        },
        {
          "name": "",
          "type": "uint256"
        }
      ],
      "payable": false,
      "stateMutability": "view",
      "type": "function"
    },
    {
      "constant": false,
      "inputs": [
        {
          "name": "username",
          "type": "string"
        }
      ],
      "name": "login",
      "outputs": [
        {
          "name": "",
          "type": "uint256"
        },
        {
          "name": "",
          "type": "string"
        },
        {
          "name": "",
          "type": "address"
        },
        {
          "name": "",
          "type": "uint256"
        }
      ],
      "payable": false,
      "stateMutability": "nonpayable",
      "type": "function"
    },
    {
      "constant": true,
      "inputs": [],
      "name": "getMainAddress",
      "outputs": [
        {
          "name": "",
          "type": "address"
        }
      ],
      "payable": false,
      "stateMutability": "view",
      "type": "function"
    },
    {
      "constant": true,
      "inputs": [
        {
          "name": "playerAddress",
          "type": "address"
        }
      ],
      "name": "checkLogin",
      "outputs": [
        {
          "name": "",
          "type": "bool"
        }
      ],
      "payable": false,
      "stateMutability": "view",
      "type": "function"
    },
    {
      "constant": true,
      "inputs": [],
      "name": "getPlayInfo",
      "outputs": [
        {
          "name": "",
          "type": "uint256"
        },
        {
          "name": "",
          "type": "string"
        },
        {
          "name": "",
          "type": "address"
        },
        {
          "name": "",
          "type": "uint256"
        }
      ],
      "payable": false,
      "stateMutability": "view",
      "type": "function"
    },
    {
      "constant": false,
      "inputs": [
        {
          "name": "amount",
          "type": "uint256"
        }
      ],
      "name": "officialTransfer",
      "outputs": [
        {
          "name": "",
          "type": "uint256"
        }
      ],
      "payable": true,
      "stateMutability": "payable",
      "type": "function"
    },
    {
      "constant": false,
      "inputs": [
        {
          "name": "_to",
          "type": "address"
        },
        {
          "name": "amount",
          "type": "uint256"
        }
      ],
      "name": "gameTransfer",
      "outputs": [
        {
          "name": "",
          "type": "uint256"
        }
      ],
      "payable": false,
      "stateMutability": "nonpayable",
      "type": "function"
    },
    {
      "constant": false,
      "inputs": [
        {
          "name": "amount",
          "type": "uint256"
        }
      ],
      "name": "sendToOfficial",
      "outputs": [
        {
          "name": "",
          "type": "uint256"
        }
      ],
      "payable": true,
      "stateMutability": "payable",
      "type": "function"
    },
    {
      "constant": false,
      "inputs": [],
      "name": "selfTransfer",
      "outputs": [
        {
          "name": "",
          "type": "uint256"
        }
      ],
      "payable": false,
      "stateMutability": "nonpayable",
      "type": "function"
    },
    {
      "constant": false,
      "inputs": [],
      "name": "selfSend",
      "outputs": [
        {
          "name": "",
          "type": "bool"
        }
      ],
      "payable": false,
      "stateMutability": "nonpayable",
      "type": "function"
    },
    {
      "constant": true,
      "inputs": [],
      "name": "selfBalance",
      "outputs": [
        {
          "name": "",
          "type": "uint256"
        }
      ],
      "payable": false,
      "stateMutability": "view",
      "type": "function"
    }
  ],
  "bytecode": "0x608060405234801561001057600080fd5b5060405160208061151f83398101806040528101908080519060200190929190505050612710600181905550731894881f2c1131c21bb62945f7512ddb273e9037600360006101000a81548173ffffffffffffffffffffffffffffffffffffffff021916908373ffffffffffffffffffffffffffffffffffffffff16021790555080600260006101000a81548173ffffffffffffffffffffffffffffffffffffffff021916908373ffffffffffffffffffffffffffffffffffffffff16021790555080600460006101000a81548173ffffffffffffffffffffffffffffffffffffffff021916908373ffffffffffffffffffffffffffffffffffffffff160217905550506113fc806101236000396000f3006080604052600436106100ba576000357c0100000000000000000000000000000000000000000000000000000000900463ffffffff168063124691de146100bf5780633a7d280c146100f35780634d9b3d5d146102165780635f9cfd571461027457806360e85674146102cb57806366fec782146103265780637670844e14610355578063999d8079146103b6578063a6b87b52146103e1578063aaf37aff14610438578063b0bed0ba14610509578063e23d8fab14610534575b600080fd5b6100dd60048036038101908080359060200190929190505050610568565b6040518082815260200191505060405180910390f35b3480156100ff57600080fd5b5061015a600480360381019080803590602001908201803590602001908080601f01602080910402602001604051908101604052809392919081815260200183838082843782019150505050505091929192905050506107c0565b60405180858152602001806020018473ffffffffffffffffffffffffffffffffffffffff1673ffffffffffffffffffffffffffffffffffffffff168152602001838152602001828103825285818151815260200191508051906020019080838360005b838110156101d85780820151818401526020810190506101bd565b50505050905090810190601f1680156102055780820380516001836020036101000a031916815260200191505b509550505050505060405180910390f35b34801561022257600080fd5b5061022b610afd565b604051808373ffffffffffffffffffffffffffffffffffffffff1673ffffffffffffffffffffffffffffffffffffffff1681526020018281526020019250505060405180910390f35b34801561028057600080fd5b50610289610c07565b604051808273ffffffffffffffffffffffffffffffffffffffff1673ffffffffffffffffffffffffffffffffffffffff16815260200191505060405180910390f35b3480156102d757600080fd5b5061030c600480360381019080803573ffffffffffffffffffffffffffffffffffffffff169060200190929190505050610c31565b604051808215151515815260200191505060405180910390f35b34801561033257600080fd5b5061033b610ccb565b604051808215151515815260200191505060405180910390f35b34801561036157600080fd5b506103a0600480360381019080803573ffffffffffffffffffffffffffffffffffffffff16906020019092919080359060200190929190505050610d31565b6040518082815260200191505060405180910390f35b3480156103c257600080fd5b506103cb610f34565b6040518082815260200191505060405180910390f35b3480156103ed57600080fd5b506103f6610faa565b604051808273ffffffffffffffffffffffffffffffffffffffff1673ffffffffffffffffffffffffffffffffffffffff16815260200191505060405180910390f35b34801561044457600080fd5b5061044d610fd0565b60405180858152602001806020018473ffffffffffffffffffffffffffffffffffffffff1673ffffffffffffffffffffffffffffffffffffffff168152602001838152602001828103825285818151815260200191508051906020019080838360005b838110156104cb5780820151818401526020810190506104b0565b50505050905090810190601f1680156104f85780820380516001836020036101000a031916815260200191505b509550505050505060405180910390f35b34801561051557600080fd5b5061051e6111a8565b6040518082815260200191505060405180910390f35b610552600480360381019080803590602001909291905050506111c7565b6040518082815260200191505060405180910390f35b6000600260009054906101000a900473ffffffffffffffffffffffffffffffffffffffff1673ffffffffffffffffffffffffffffffffffffffff166323b872dd600360009054906101000a900473ffffffffffffffffffffffffffffffffffffffff1633856040518463ffffffff167c0100000000000000000000000000000000000000000000000000000000028152600401808473ffffffffffffffffffffffffffffffffffffffff1673ffffffffffffffffffffffffffffffffffffffff1681526020018373ffffffffffffffffffffffffffffffffffffffff1673ffffffffffffffffffffffffffffffffffffffff1681526020018281526020019350505050602060405180830381600087803b15801561068557600080fd5b505af1158015610699573d6000803e3d6000fd5b505050506040513d60208110156106af57600080fd5b810190808051906020019092919050505050600260009054906101000a900473ffffffffffffffffffffffffffffffffffffffff1673ffffffffffffffffffffffffffffffffffffffff166370a08231336040518263ffffffff167c0100000000000000000000000000000000000000000000000000000000028152600401808273ffffffffffffffffffffffffffffffffffffffff1673ffffffffffffffffffffffffffffffffffffffff168152602001915050602060405180830381600087803b15801561077e57600080fd5b505af1158015610792573d6000803e3d6000fd5b505050506040513d60208110156107a857600080fd5b81019080805190602001909291905050509050919050565b6000606060008060016000803373ffffffffffffffffffffffffffffffffffffffff1673ffffffffffffffffffffffffffffffffffffffff16815260200190815260200160002060000181905550846000803373ffffffffffffffffffffffffffffffffffffffff1673ffffffffffffffffffffffffffffffffffffffff168152602001908152602001600020600101908051906020019061086392919061132b565b50336000803373ffffffffffffffffffffffffffffffffffffffff1673ffffffffffffffffffffffffffffffffffffffff16815260200190815260200160002060020160006101000a81548173ffffffffffffffffffffffffffffffffffffffff021916908373ffffffffffffffffffffffffffffffffffffffff16021790555060016000803373ffffffffffffffffffffffffffffffffffffffff1673ffffffffffffffffffffffffffffffffffffffff168152602001908152602001600020600301819055506000803373ffffffffffffffffffffffffffffffffffffffff1673ffffffffffffffffffffffffffffffffffffffff168152602001908152602001600020600001546000803373ffffffffffffffffffffffffffffffffffffffff1673ffffffffffffffffffffffffffffffffffffffff1681526020019081526020016000206001016000803373ffffffffffffffffffffffffffffffffffffffff1673ffffffffffffffffffffffffffffffffffffffff16815260200190815260200160002060020160009054906101000a900473ffffffffffffffffffffffffffffffffffffffff166000803373ffffffffffffffffffffffffffffffffffffffff1673ffffffffffffffffffffffffffffffffffffffff16815260200190815260200160002060030154828054600181600116156101000203166002900480601f016020809104026020016040519081016040528092919081815260200182805460018160011615610100020316600290048015610ae75780601f10610abc57610100808354040283529160200191610ae7565b820191906000526020600020905b815481529060010190602001808311610aca57829003601f168201915b5050505050925093509350935093509193509193565b6000806000600260009054906101000a900473ffffffffffffffffffffffffffffffffffffffff1673ffffffffffffffffffffffffffffffffffffffff166370a08231336040518263ffffffff167c0100000000000000000000000000000000000000000000000000000000028152600401808273ffffffffffffffffffffffffffffffffffffffff1673ffffffffffffffffffffffffffffffffffffffff168152602001915050602060405180830381600087803b158015610bbf57600080fd5b505af1158015610bd3573d6000803e3d6000fd5b505050506040513d6020811015610be957600080fd5b81019080805190602001909291905050509050338192509250509091565b6000600360009054906101000a900473ffffffffffffffffffffffffffffffffffffffff16905090565b60008073ffffffffffffffffffffffffffffffffffffffff166000808473ffffffffffffffffffffffffffffffffffffffff1673ffffffffffffffffffffffffffffffffffffffff16815260200190815260200160002060020160009054906101000a900473ffffffffffffffffffffffffffffffffffffffff1673ffffffffffffffffffffffffffffffffffffffff1614159050919050565b6000600360009054906101000a900473ffffffffffffffffffffffffffffffffffffffff1673ffffffffffffffffffffffffffffffffffffffff166108fc670de0b6b3a76400009081150290604051600060405180830381858888f19350505050905090565b6000600260009054906101000a900473ffffffffffffffffffffffffffffffffffffffff1673ffffffffffffffffffffffffffffffffffffffff1663a9059cbb84846040518363ffffffff167c0100000000000000000000000000000000000000000000000000000000028152600401808373ffffffffffffffffffffffffffffffffffffffff1673ffffffffffffffffffffffffffffffffffffffff16815260200182815260200192505050602060405180830381600087803b158015610df857600080fd5b505af1158015610e0c573d6000803e3d6000fd5b505050506040513d6020811015610e2257600080fd5b810190808051906020019092919050505050600260009054906101000a900473ffffffffffffffffffffffffffffffffffffffff1673ffffffffffffffffffffffffffffffffffffffff166370a08231336040518263ffffffff167c0100000000000000000000000000000000000000000000000000000000028152600401808273ffffffffffffffffffffffffffffffffffffffff1673ffffffffffffffffffffffffffffffffffffffff168152602001915050602060405180830381600087803b158015610ef157600080fd5b505af1158015610f05573d6000803e3d6000fd5b505050506040513d6020811015610f1b57600080fd5b8101908080519060200190929190505050905092915050565b6000600360009054906101000a900473ffffffffffffffffffffffffffffffffffffffff1673ffffffffffffffffffffffffffffffffffffffff166108fc674563918244f400009081150290604051600060405180830381858888f19350505050158015610fa6573d6000803e3d6000fd5b5090565b600260009054906101000a900473ffffffffffffffffffffffffffffffffffffffff1681565b600060606000806000803373ffffffffffffffffffffffffffffffffffffffff1673ffffffffffffffffffffffffffffffffffffffff168152602001908152602001600020600001546000803373ffffffffffffffffffffffffffffffffffffffff1673ffffffffffffffffffffffffffffffffffffffff1681526020019081526020016000206001016000803373ffffffffffffffffffffffffffffffffffffffff1673ffffffffffffffffffffffffffffffffffffffff16815260200190815260200160002060020160009054906101000a900473ffffffffffffffffffffffffffffffffffffffff166000803373ffffffffffffffffffffffffffffffffffffffff1673ffffffffffffffffffffffffffffffffffffffff16815260200190815260200160002060030154828054600181600116156101000203166002900480601f0160208091040260200160405190810160405280929190818152602001828054600181600116156101000203166002900480156111935780601f1061116857610100808354040283529160200191611193565b820191906000526020600020905b81548152906001019060200180831161117657829003601f168201915b50505050509250935093509350935090919293565b60003373ffffffffffffffffffffffffffffffffffffffff1631905090565b60007382092399fa0c6d24862b741d394367da406f5fed73ffffffffffffffffffffffffffffffffffffffff166108fc670de0b6b3a76400009081150290604051600060405180830381858888f1935050505015801561122b573d6000803e3d6000fd5b50600260009054906101000a900473ffffffffffffffffffffffffffffffffffffffff1673ffffffffffffffffffffffffffffffffffffffff166370a08231336040518263ffffffff167c0100000000000000000000000000000000000000000000000000000000028152600401808273ffffffffffffffffffffffffffffffffffffffff1673ffffffffffffffffffffffffffffffffffffffff168152602001915050602060405180830381600087803b1580156112e957600080fd5b505af11580156112fd573d6000803e3d6000fd5b505050506040513d602081101561131357600080fd5b81019080805190602001909291905050509050919050565b828054600181600116156101000203166002900490600052602060002090601f016020900481019282601f1061136c57805160ff191683800117855561139a565b8280016001018555821561139a579182015b8281111561139957825182559160200191906001019061137e565b5b5090506113a791906113ab565b5090565b6113cd91905b808211156113c95760008160009055506001016113b1565b5090565b905600a165627a7a72305820921774a58e41251cc3b59558269ccdacef8ed42763ba0c569b3cfd2f179172530029",
  "source": "pragma solidity ^0.4.16;\r\n\r\nimport \"./ERC20.sol\";\r\n\r\ncontract GambleGameBak{\r\n    \r\n    mapping(address => Player) internal players;\r\n    \r\n    uint internal currentId;\r\n    ERC20 public erc;\r\n    // ERC20 public erc = ERC20(0x4059E4B81aa04D923e7890bDb23F2179b68C243E);\r\n    // token public erc = token(0x4059E4B81aa04D923e7890bDb23F2179b68C243E);\r\n    \r\n    address mainAddress;\r\n    address tokenAddress;\r\n    \r\n    constructor(address _coinAddress) public {\r\n        currentId = 10000;\r\n        //mainAddress = 0x83dF2aBf22c8E2784c9B6Ae0B20E2e1cbb1cf9d0 ;\r\n        mainAddress = 0x1894881F2C1131c21bb62945f7512ddb273E9037;\r\n        erc = ERC20(_coinAddress);\r\n        tokenAddress = _coinAddress;\r\n    }\r\n    \r\n    function getbalance() public constant returns(address,uint)\r\n    {\r\n        uint a=erc.balanceOf(msg.sender);//查询该代币总量赋值给a\r\n        \r\n        return (msg.sender,a);\r\n    }\r\n\r\n    function login(string memory username)public returns (uint,string,address,uint){\r\n\r\n        players[msg.sender].id = 1;\r\n        players[msg.sender].name = username;\r\n        players[msg.sender].addr = msg.sender;\r\n        players[msg.sender].balance = 1;\r\n        \r\n        \r\n        return (players[msg.sender].id,players[msg.sender].name,players[msg.sender].addr,players[msg.sender].balance);\r\n    }\r\n    \r\n    function getMainAddress() public constant returns (address){\r\n\r\n        return mainAddress;\r\n    }\r\n    \r\n    function checkLogin(address playerAddress) public constant returns (bool){\r\n        return players[playerAddress].addr != 0x0000000000000000000000000000000000000000;\r\n    }\r\n    \r\n    \r\n    function getPlayInfo()public constant returns(uint,string,address,uint){\r\n        return (players[msg.sender].id,players[msg.sender].name,players[msg.sender].addr,players[msg.sender].balance);\r\n    }\r\n    \r\n    function officialTransfer(uint256 amount) public payable returns(uint){\r\n        erc.transferFrom(mainAddress,msg.sender,amount);\r\n        return erc.balanceOf(msg.sender);\r\n    }\r\n    \r\n    function gameTransfer(address _to,uint256 amount) public returns(uint){\r\n        // erc.transferFrom(msg.sender,_to,amount);\r\n        erc.transfer(_to,amount);\r\n        return erc.balanceOf(msg.sender);\r\n    }\r\n    \r\n    function sendToOfficial(uint256 amount) public payable returns(uint){\r\n        // erc.transferFrom(msg.sender,_to,amount);\r\n        0x82092399Fa0c6d24862b741d394367DA406f5feD.transfer(1 ether);\r\n        return erc.balanceOf(msg.sender);\r\n    }\r\n    \r\n    \r\n    \r\n    function selfTransfer() public returns (uint){\r\n        //require(mainAddress != msg.sender);\r\n        mainAddress.transfer(5000000000000000000);\r\n        // return msg.sender.balance;\r\n    }\r\n    \r\n    function selfSend()  public returns (bool){\r\n        return mainAddress.send(1000000000000000000);\r\n    }\r\n    \r\n    function selfBalance() public constant returns (uint){\r\n        return msg.sender.balance;\r\n    }\r\n    \r\n    struct Player{\r\n        uint id;\r\n        string name;\r\n        address addr;\r\n        uint balance;\r\n    }\r\n\r\n}",
  "sourcePath": "D:\\developenv\\workspace\\eth\\BlockChainExample\\gamblegame\\contracts\\GambleGameBak.sol",
  "compiler": {
    "name": "solc",
    "version": "0.4.23+commit.124ca40d.Emscripten.clang"
  },
  "schemaVersion": "2.0.0",
  "updatedAt": "2019-09-10T03:51:53.503Z"
}