{
  "contractName": "GambelGame",
  "abi": [
    {
      "constant": true,
      "inputs": [],
      "name": "name",
      "outputs": [
        {
          "name": "",
          "type": "string"
        }
      ],
      "payable": false,
      "stateMutability": "view",
      "type": "function"
    },
    {
      "constant": false,
      "inputs": [
        {
          "name": "_spender",
          "type": "address"
        },
        {
          "name": "_value",
          "type": "uint256"
        }
      ],
      "name": "approve",
      "outputs": [
        {
          "name": "success",
          "type": "bool"
        }
      ],
      "payable": false,
      "stateMutability": "nonpayable",
      "type": "function"
    },
    {
      "constant": true,
      "inputs": [],
      "name": "totalSupply",
      "outputs": [
        {
          "name": "",
          "type": "uint256"
        }
      ],
      "payable": false,
      "stateMutability": "view",
      "type": "function"
    },
    {
      "constant": false,
      "inputs": [
        {
          "name": "_from",
          "type": "address"
        },
        {
          "name": "_to",
          "type": "address"
        },
        {
          "name": "_value",
          "type": "uint256"
        }
      ],
      "name": "transferFrom",
      "outputs": [
        {
          "name": "success",
          "type": "bool"
        }
      ],
      "payable": false,
      "stateMutability": "nonpayable",
      "type": "function"
    },
    {
      "constant": true,
      "inputs": [],
      "name": "decimals",
      "outputs": [
        {
          "name": "",
          "type": "uint8"
        }
      ],
      "payable": false,
      "stateMutability": "view",
      "type": "function"
    },
    {
      "constant": true,
      "inputs": [
        {
          "name": "",
          "type": "address"
        }
      ],
      "name": "lastBonusTime",
      "outputs": [
        {
          "name": "",
          "type": "uint256"
        }
      ],
      "payable": false,
      "stateMutability": "view",
      "type": "function"
    },
    {
      "constant": false,
      "inputs": [
        {
          "name": "_addr",
          "type": "address"
        }
      ],
      "name": "removeLock",
      "outputs": [
        {
          "name": "success",
          "type": "bool"
        }
      ],
      "payable": false,
      "stateMutability": "nonpayable",
      "type": "function"
    },
    {
      "constant": true,
      "inputs": [],
      "name": "transferEnabled",
      "outputs": [
        {
          "name": "",
          "type": "bool"
        }
      ],
      "payable": false,
      "stateMutability": "view",
      "type": "function"
    },
    {
      "constant": false,
      "inputs": [
        {
          "name": "_from",
          "type": "address"
        },
        {
          "name": "_to",
          "type": "address"
        },
        {
          "name": "_value",
          "type": "uint256"
        }
      ],
      "name": "sendBonus",
      "outputs": [
        {
          "name": "success",
          "type": "bool"
        }
      ],
      "payable": false,
      "stateMutability": "nonpayable",
      "type": "function"
    },
    {
      "constant": true,
      "inputs": [
        {
          "name": "",
          "type": "address"
        }
      ],
      "name": "balanceOf",
      "outputs": [
        {
          "name": "",
          "type": "uint256"
        }
      ],
      "payable": false,
      "stateMutability": "view",
      "type": "function"
    },
    {
      "constant": false,
      "inputs": [],
      "name": "acceptOwnership",
      "outputs": [],
      "payable": false,
      "stateMutability": "nonpayable",
      "type": "function"
    },
    {
      "constant": false,
      "inputs": [
        {
          "name": "_addr",
          "type": "address"
        }
      ],
      "name": "addLock",
      "outputs": [
        {
          "name": "success",
          "type": "bool"
        }
      ],
      "payable": false,
      "stateMutability": "nonpayable",
      "type": "function"
    },
    {
      "constant": true,
      "inputs": [],
      "name": "owner",
      "outputs": [
        {
          "name": "",
          "type": "address"
        }
      ],
      "payable": false,
      "stateMutability": "view",
      "type": "function"
    },
    {
      "constant": true,
      "inputs": [],
      "name": "isOwner",
      "outputs": [
        {
          "name": "",
          "type": "bool"
        }
      ],
      "payable": false,
      "stateMutability": "view",
      "type": "function"
    },
    {
      "constant": false,
      "inputs": [
        {
          "name": "_enable",
          "type": "bool"
        }
      ],
      "name": "disableLock",
      "outputs": [
        {
          "name": "success",
          "type": "bool"
        }
      ],
      "payable": false,
      "stateMutability": "nonpayable",
      "type": "function"
    },
    {
      "constant": true,
      "inputs": [],
      "name": "symbol",
      "outputs": [
        {
          "name": "",
          "type": "string"
        }
      ],
      "payable": false,
      "stateMutability": "view",
      "type": "function"
    },
    {
      "constant": false,
      "inputs": [
        {
          "name": "_addr",
          "type": "address"
        },
        {
          "name": "_enable",
          "type": "bool"
        }
      ],
      "name": "setExclude",
      "outputs": [
        {
          "name": "success",
          "type": "bool"
        }
      ],
      "payable": false,
      "stateMutability": "nonpayable",
      "type": "function"
    },
    {
      "constant": false,
      "inputs": [
        {
          "name": "_newOwner",
          "type": "address"
        }
      ],
      "name": "changeOwner",
      "outputs": [],
      "payable": false,
      "stateMutability": "nonpayable",
      "type": "function"
    },
    {
      "constant": false,
      "inputs": [
        {
          "name": "_to",
          "type": "address"
        },
        {
          "name": "_value",
          "type": "uint256"
        }
      ],
      "name": "transfer",
      "outputs": [
        {
          "name": "success",
          "type": "bool"
        }
      ],
      "payable": false,
      "stateMutability": "nonpayable",
      "type": "function"
    },
    {
      "constant": true,
      "inputs": [
        {
          "name": "_owner",
          "type": "address"
        },
        {
          "name": "_spender",
          "type": "address"
        }
      ],
      "name": "allowance",
      "outputs": [
        {
          "name": "remaining",
          "type": "uint256"
        }
      ],
      "payable": false,
      "stateMutability": "view",
      "type": "function"
    },
    {
      "constant": false,
      "inputs": [
        {
          "name": "_enable",
          "type": "bool"
        }
      ],
      "name": "enableTransfer",
      "outputs": [
        {
          "name": "success",
          "type": "bool"
        }
      ],
      "payable": false,
      "stateMutability": "nonpayable",
      "type": "function"
    },
    {
      "inputs": [],
      "payable": false,
      "stateMutability": "nonpayable",
      "type": "constructor"
    },
    {
      "anonymous": false,
      "inputs": [
        {
          "indexed": false,
          "name": "_prevOwner",
          "type": "address"
        },
        {
          "indexed": false,
          "name": "_newOwner",
          "type": "address"
        }
      ],
      "name": "OwnerUpdate",
      "type": "event"
    },
    {
      "anonymous": false,
      "inputs": [
        {
          "indexed": true,
          "name": "_from",
          "type": "address"
        },
        {
          "indexed": true,
          "name": "_to",
          "type": "address"
        },
        {
          "indexed": false,
          "name": "_value",
          "type": "uint256"
        }
      ],
      "name": "Transfer",
      "type": "event"
    },
    {
      "anonymous": false,
      "inputs": [
        {
          "indexed": true,
          "name": "_owner",
          "type": "address"
        },
        {
          "indexed": true,
          "name": "_spender",
          "type": "address"
        },
        {
          "indexed": false,
          "name": "_value",
          "type": "uint256"
        }
      ],
      "name": "Approval",
      "type": "event"
    },
    {
      "constant": false,
      "inputs": [
        {
          "name": "username",
          "type": "string"
        }
      ],
      "name": "register",
      "outputs": [
        {
          "name": "",
          "type": "uint256"
        },
        {
          "name": "",
          "type": "string"
        },
        {
          "name": "",
          "type": "address"
        },
        {
          "name": "",
          "type": "uint256"
        }
      ],
      "payable": false,
      "stateMutability": "nonpayable",
      "type": "function"
    },
    {
      "constant": false,
      "inputs": [
        {
          "name": "username",
          "type": "string"
        }
      ],
      "name": "login",
      "outputs": [
        {
          "name": "",
          "type": "uint256"
        },
        {
          "name": "",
          "type": "string"
        },
        {
          "name": "",
          "type": "address"
        },
        {
          "name": "",
          "type": "uint256"
        }
      ],
      "payable": false,
      "stateMutability": "nonpayable",
      "type": "function"
    },
    {
      "constant": true,
      "inputs": [
        {
          "name": "playerAddress",
          "type": "address"
        }
      ],
      "name": "checkLogin",
      "outputs": [
        {
          "name": "",
          "type": "bool"
        }
      ],
      "payable": false,
      "stateMutability": "view",
      "type": "function"
    },
    {
      "constant": true,
      "inputs": [],
      "name": "getPlayInfo",
      "outputs": [
        {
          "name": "",
          "type": "uint256"
        },
        {
          "name": "",
          "type": "string"
        },
        {
          "name": "",
          "type": "address"
        },
        {
          "name": "",
          "type": "uint256"
        }
      ],
      "payable": false,
      "stateMutability": "view",
      "type": "function"
    },
    {
      "constant": false,
      "inputs": [],
      "name": "getBonus",
      "outputs": [
        {
          "name": "",
          "type": "uint256"
        }
      ],
      "payable": false,
      "stateMutability": "nonpayable",
      "type": "function"
    },
    {
      "constant": true,
      "inputs": [],
      "name": "checkBonus",
      "outputs": [
        {
          "name": "",
          "type": "bool"
        }
      ],
      "payable": false,
      "stateMutability": "view",
      "type": "function"
    },
    {
      "constant": false,
      "inputs": [
        {
          "name": "amount",
          "type": "uint256"
        }
      ],
      "name": "join",
      "outputs": [
        {
          "name": "",
          "type": "bool"
        }
      ],
      "payable": false,
      "stateMutability": "nonpayable",
      "type": "function"
    },
    {
      "constant": true,
      "inputs": [],
      "name": "getBalance",
      "outputs": [
        {
          "name": "",
          "type": "uint256"
        }
      ],
      "payable": false,
      "stateMutability": "view",
      "type": "function"
    }
  ],
  "bytecode": "0x60806040526000600560006101000a81548173ffffffffffffffffffffffffffffffffffffffff021916908373ffffffffffffffffffffffffffffffffffffffff1602179055506001600560146101000a81548160ff0219169083151502179055506001600560156101000a81548160ff0219169083151502179055503480156200008957600080fd5b5033600460006101000a81548173ffffffffffffffffffffffffffffffffffffffff021916908373ffffffffffffffffffffffffffffffffffffffff160217905550620000e733600162000238640100000000026401000000009004565b50633b9aca006003819055506040805190810160405280600e81526020017f5869616f6d696e6720546f6b656e0000000000000000000000000000000000008152506000908051906020019062000140929190620002f8565b506040805190810160405280600281526020017f4d42000000000000000000000000000000000000000000000000000000000000815250600190805190602001906200018e929190620002f8565b506000600260006101000a81548160ff021916908360ff160217905550600354600860003373ffffffffffffffffffffffffffffffffffffffff1673ffffffffffffffffffffffffffffffffffffffff1681526020019081526020016000208190555033600c60006101000a81548173ffffffffffffffffffffffffffffffffffffffff021916908373ffffffffffffffffffffffffffffffffffffffff160217905550620003a7565b6000600460009054906101000a900473ffffffffffffffffffffffffffffffffffffffff1673ffffffffffffffffffffffffffffffffffffffff163373ffffffffffffffffffffffffffffffffffffffff161415156200029757600080fd5b81600760008573ffffffffffffffffffffffffffffffffffffffff1673ffffffffffffffffffffffffffffffffffffffff16815260200190815260200160002060006101000a81548160ff0219169083151502179055506001905092915050565b828054600181600116156101000203166002900490600052602060002090601f016020900481019282601f106200033b57805160ff19168380011785556200036c565b828001600101855582156200036c579182015b828111156200036b5782518255916020019190600101906200034e565b5b5090506200037b91906200037f565b5090565b620003a491905b80821115620003a057600081600090555060010162000386565b5090565b90565b612d4780620003b76000396000f300608060405260043610610175576000357c0100000000000000000000000000000000000000000000000000000000900463ffffffff168063049878f31461017a57806306fdde03146101bf578063095ea7b31461024f57806312065fe0146102b457806318160ddd146102df57806323b872dd1461030a578063313ce5671461038f5780633a7d280c146103c05780633fcd29a6146104e35780634a387bef1461053a5780634cd412d5146105955780635774ce4d146105c457806360e856741461064957806370a08231146106a457806379ba5097146106fb578063882f327b146107125780638bdff1611461076d5780638da5cb5b146107985780638f32d59b146107ef57806391c71e2b1461081e57806395d89b4114610865578063961d3cd3146108f55780639669f64e1461095c578063a6f9dae11461098b578063a9059cbb146109ce578063aaf37aff14610a33578063dd62ed3e14610b04578063ef7ac0e514610b7b578063f2c298be14610bc2575b600080fd5b34801561018657600080fd5b506101a560048036038101908080359060200190929190505050610ce5565b604051808215151515815260200191505060405180910390f35b3480156101cb57600080fd5b506101d4610d43565b6040518080602001828103825283818151815260200191508051906020019080838360005b838110156102145780820151818401526020810190506101f9565b50505050905090810190601f1680156102415780820380516001836020036101000a031916815260200191505b509250505060405180910390f35b34801561025b57600080fd5b5061029a600480360381019080803573ffffffffffffffffffffffffffffffffffffffff16906020019092919080359060200190929190505050610de1565b604051808215151515815260200191505060405180910390f35b3480156102c057600080fd5b506102c9610ed3565b6040518082815260200191505060405180910390f35b3480156102eb57600080fd5b506102f4610fb0565b6040518082815260200191505060405180910390f35b34801561031657600080fd5b50610375600480360381019080803573ffffffffffffffffffffffffffffffffffffffff169060200190929190803573ffffffffffffffffffffffffffffffffffffffff16906020019092919080359060200190929190505050610fb6565b604051808215151515815260200191505060405180910390f35b34801561039b57600080fd5b506103a4611528565b604051808260ff1660ff16815260200191505060405180910390f35b3480156103cc57600080fd5b50610427600480360381019080803590602001908201803590602001908080601f016020809104026020016040519081016040528093929190818152602001838380828437820191505050505050919291929050505061153b565b60405180858152602001806020018473ffffffffffffffffffffffffffffffffffffffff1673ffffffffffffffffffffffffffffffffffffffff168152602001838152602001828103825285818151815260200191508051906020019080838360005b838110156104a557808201518184015260208101905061048a565b50505050905090810190601f1680156104d25780820380516001836020036101000a031916815260200191505b509550505050505060405180910390f35b3480156104ef57600080fd5b50610524600480360381019080803573ffffffffffffffffffffffffffffffffffffffff169060200190929190505050611718565b6040518082815260200191505060405180910390f35b34801561054657600080fd5b5061057b600480360381019080803573ffffffffffffffffffffffffffffffffffffffff169060200190929190505050611730565b604051808215151515815260200191505060405180910390f35b3480156105a157600080fd5b506105aa6117ef565b604051808215151515815260200191505060405180910390f35b3480156105d057600080fd5b5061062f600480360381019080803573ffffffffffffffffffffffffffffffffffffffff169060200190929190803573ffffffffffffffffffffffffffffffffffffffff16906020019092919080359060200190929190505050611802565b604051808215151515815260200191505060405180910390f35b34801561065557600080fd5b5061068a600480360381019080803573ffffffffffffffffffffffffffffffffffffffff169060200190929190505050611abc565b604051808215151515815260200191505060405180910390f35b3480156106b057600080fd5b506106e5600480360381019080803573ffffffffffffffffffffffffffffffffffffffff169060200190929190505050611b57565b6040518082815260200191505060405180910390f35b34801561070757600080fd5b50610710611b6f565b005b34801561071e57600080fd5b50610753600480360381019080803573ffffffffffffffffffffffffffffffffffffffff169060200190929190505050611d4d565b604051808215151515815260200191505060405180910390f35b34801561077957600080fd5b50610782611e47565b6040518082815260200191505060405180910390f35b3480156107a457600080fd5b506107ad611e93565b604051808273ffffffffffffffffffffffffffffffffffffffff1673ffffffffffffffffffffffffffffffffffffffff16815260200191505060405180910390f35b3480156107fb57600080fd5b50610804611eb9565b604051808215151515815260200191505060405180910390f35b34801561082a57600080fd5b5061084b600480360381019080803515159060200190929190505050611f11565b604051808215151515815260200191505060405180910390f35b34801561087157600080fd5b5061087a611f92565b6040518080602001828103825283818151815260200191508051906020019080838360005b838110156108ba57808201518184015260208101905061089f565b50505050905090810190601f1680156108e75780820380516001836020036101000a031916815260200191505b509250505060405180910390f35b34801561090157600080fd5b50610942600480360381019080803573ffffffffffffffffffffffffffffffffffffffff169060200190929190803515159060200190929190505050612030565b604051808215151515815260200191505060405180910390f35b34801561096857600080fd5b506109716120ef565b604051808215151515815260200191505060405180910390f35b34801561099757600080fd5b506109cc600480360381019080803573ffffffffffffffffffffffffffffffffffffffff16906020019092919050505061213c565b005b3480156109da57600080fd5b50610a19600480360381019080803573ffffffffffffffffffffffffffffffffffffffff16906020019092919080359060200190929190505050612239565b604051808215151515815260200191505060405180910390f35b348015610a3f57600080fd5b50610a48612610565b60405180858152602001806020018473ffffffffffffffffffffffffffffffffffffffff1673ffffffffffffffffffffffffffffffffffffffff168152602001838152602001828103825285818151815260200191508051906020019080838360005b83811015610ac6578082015181840152602081019050610aab565b50505050905090810190601f168015610af35780820380516001836020036101000a031916815260200191505b509550505050505060405180910390f35b348015610b1057600080fd5b50610b65600480360381019080803573ffffffffffffffffffffffffffffffffffffffff169060200190929190803573ffffffffffffffffffffffffffffffffffffffff1690602001909291905050506127ec565b6040518082815260200191505060405180910390f35b348015610b8757600080fd5b50610ba8600480360381019080803515159060200190929190505050612873565b604051808215151515815260200191505060405180910390f35b348015610bce57600080fd5b50610c29600480360381019080803590602001908201803590602001908080601f01602080910402602001604051908101604052809392919081815260200183838082843782019150505050505091929192905050506128f4565b60405180858152602001806020018473ffffffffffffffffffffffffffffffffffffffff1673ffffffffffffffffffffffffffffffffffffffff168152602001838152602001828103825285818151815260200191508051906020019080838360005b83811015610ca7578082015181840152602081019050610c8c565b50505050905090810190601f168015610cd45780820380516001836020036101000a031916815260200191505b509550505050505060405180910390f35b60003373ffffffffffffffffffffffffffffffffffffffff163182101515610d0c57600080fd5b610d3933600c60009054906101000a900473ffffffffffffffffffffffffffffffffffffffff1684610fb6565b5060019050919050565b60008054600181600116156101000203166002900480601f016020809104026020016040519081016040528092919081815260200182805460018160011615610100020316600290048015610dd95780601f10610dae57610100808354040283529160200191610dd9565b820191906000526020600020905b815481529060010190602001808311610dbc57829003601f168201915b505050505081565b600081600960003373ffffffffffffffffffffffffffffffffffffffff1673ffffffffffffffffffffffffffffffffffffffff16815260200190815260200160002060008573ffffffffffffffffffffffffffffffffffffffff1673ffffffffffffffffffffffffffffffffffffffff168152602001908152602001600020819055508273ffffffffffffffffffffffffffffffffffffffff163373ffffffffffffffffffffffffffffffffffffffff167f8c5be1e5ebec7d5bd14f71427d1e84f3dd0314c0f7b2291e5b200ac8c7c3b925846040518082815260200191505060405180910390a36001905092915050565b60003073ffffffffffffffffffffffffffffffffffffffff166370a08231336040518263ffffffff167c0100000000000000000000000000000000000000000000000000000000028152600401808273ffffffffffffffffffffffffffffffffffffffff1673ffffffffffffffffffffffffffffffffffffffff168152602001915050602060405180830381600087803b158015610f7057600080fd5b505af1158015610f84573d6000803e3d6000fd5b505050506040513d6020811015610f9a57600080fd5b8101908080519060200190929190505050905090565b60035481565b600083600760008273ffffffffffffffffffffffffffffffffffffffff1673ffffffffffffffffffffffffffffffffffffffff16815260200190815260200160002060009054906101000a900460ff16151561116957600560149054906101000a900460ff161515611090576040517f08c379a000000000000000000000000000000000000000000000000000000000815260040180806020018281038252601d8152602001807f7472616e73666572206973206e6f7420656e6162656c6564206e6f772100000081525060200191505060405180910390fd5b600560159054906101000a900460ff161561116857600660008273ffffffffffffffffffffffffffffffffffffffff1673ffffffffffffffffffffffffffffffffffffffff16815260200190815260200160002060009054906101000a900460ff16151515611167576040517f08c379a000000000000000000000000000000000000000000000000000000000815260040180806020018281038252600f8152602001807f796f7520617265206c6f636b656421000000000000000000000000000000000081525060200191505060405180910390fd5b5b5b600073ffffffffffffffffffffffffffffffffffffffff168473ffffffffffffffffffffffffffffffffffffffff16141515156111a557600080fd5b600860008673ffffffffffffffffffffffffffffffffffffffff1673ffffffffffffffffffffffffffffffffffffffff1681526020019081526020016000205483111515156111f357600080fd5b600960008673ffffffffffffffffffffffffffffffffffffffff1673ffffffffffffffffffffffffffffffffffffffff16815260200190815260200160002060003373ffffffffffffffffffffffffffffffffffffffff1673ffffffffffffffffffffffffffffffffffffffff16815260200190815260200160002054831115151561127e57600080fd5b6112d083600860008873ffffffffffffffffffffffffffffffffffffffff1673ffffffffffffffffffffffffffffffffffffffff16815260200190815260200160002054612c3f90919063ffffffff16565b600860008773ffffffffffffffffffffffffffffffffffffffff1673ffffffffffffffffffffffffffffffffffffffff1681526020019081526020016000208190555061136583600860008773ffffffffffffffffffffffffffffffffffffffff1673ffffffffffffffffffffffffffffffffffffffff16815260200190815260200160002054612c5890919063ffffffff16565b600860008673ffffffffffffffffffffffffffffffffffffffff1673ffffffffffffffffffffffffffffffffffffffff1681526020019081526020016000208190555061143783600960008873ffffffffffffffffffffffffffffffffffffffff1673ffffffffffffffffffffffffffffffffffffffff16815260200190815260200160002060003373ffffffffffffffffffffffffffffffffffffffff1673ffffffffffffffffffffffffffffffffffffffff16815260200190815260200160002054612c3f90919063ffffffff16565b600960008773ffffffffffffffffffffffffffffffffffffffff1673ffffffffffffffffffffffffffffffffffffffff16815260200190815260200160002060003373ffffffffffffffffffffffffffffffffffffffff1673ffffffffffffffffffffffffffffffffffffffff168152602001908152602001600020819055508373ffffffffffffffffffffffffffffffffffffffff168573ffffffffffffffffffffffffffffffffffffffff167fddf252ad1be2c89b69c2b068fc378daa952ba7f163c4a11628f55a4df523b3ef856040518082815260200191505060405180910390a360019150509392505050565b600260009054906101000a900460ff1681565b60006060600080600b60003373ffffffffffffffffffffffffffffffffffffffff1673ffffffffffffffffffffffffffffffffffffffff16815260200190815260200160002060000154600b60003373ffffffffffffffffffffffffffffffffffffffff1673ffffffffffffffffffffffffffffffffffffffff168152602001908152602001600020600101600b60003373ffffffffffffffffffffffffffffffffffffffff1673ffffffffffffffffffffffffffffffffffffffff16815260200190815260200160002060020160009054906101000a900473ffffffffffffffffffffffffffffffffffffffff16600b60003373ffffffffffffffffffffffffffffffffffffffff1673ffffffffffffffffffffffffffffffffffffffff16815260200190815260200160002060030154828054600181600116156101000203166002900480601f0160208091040260200160405190810160405280929190818152602001828054600181600116156101000203166002900480156117025780601f106116d757610100808354040283529160200191611702565b820191906000526020600020905b8154815290600101906020018083116116e557829003601f168201915b5050505050925093509350935093509193509193565b600a6020528060005260406000206000915090505481565b6000600460009054906101000a900473ffffffffffffffffffffffffffffffffffffffff1673ffffffffffffffffffffffffffffffffffffffff163373ffffffffffffffffffffffffffffffffffffffff1614151561178e57600080fd5b6000600660008473ffffffffffffffffffffffffffffffffffffffff1673ffffffffffffffffffffffffffffffffffffffff16815260200190815260200160002060006101000a81548160ff02191690831515021790555060019050919050565b600560149054906101000a900460ff1681565b60008073ffffffffffffffffffffffffffffffffffffffff168373ffffffffffffffffffffffffffffffffffffffff161415151561183f57600080fd5b600860008573ffffffffffffffffffffffffffffffffffffffff1673ffffffffffffffffffffffffffffffffffffffff16815260200190815260200160002054821115151561188d57600080fd5b601e600a60008573ffffffffffffffffffffffffffffffffffffffff1673ffffffffffffffffffffffffffffffffffffffff168152602001908152602001600020540142101515156118de57600080fd5b61193082600860008773ffffffffffffffffffffffffffffffffffffffff1673ffffffffffffffffffffffffffffffffffffffff16815260200190815260200160002054612c3f90919063ffffffff16565b600860008673ffffffffffffffffffffffffffffffffffffffff1673ffffffffffffffffffffffffffffffffffffffff168152602001908152602001600020819055506119c582600860008673ffffffffffffffffffffffffffffffffffffffff1673ffffffffffffffffffffffffffffffffffffffff16815260200190815260200160002054612c5890919063ffffffff16565b600860008573ffffffffffffffffffffffffffffffffffffffff1673ffffffffffffffffffffffffffffffffffffffff1681526020019081526020016000208190555042600a60008573ffffffffffffffffffffffffffffffffffffffff1673ffffffffffffffffffffffffffffffffffffffff168152602001908152602001600020819055508273ffffffffffffffffffffffffffffffffffffffff168473ffffffffffffffffffffffffffffffffffffffff167fddf252ad1be2c89b69c2b068fc378daa952ba7f163c4a11628f55a4df523b3ef846040518082815260200191505060405180910390a3600190509392505050565b60008073ffffffffffffffffffffffffffffffffffffffff16600b60008473ffffffffffffffffffffffffffffffffffffffff1673ffffffffffffffffffffffffffffffffffffffff16815260200190815260200160002060020160009054906101000a900473ffffffffffffffffffffffffffffffffffffffff1673ffffffffffffffffffffffffffffffffffffffff1614159050919050565b60086020528060005260406000206000915090505481565b600560009054906101000a900473ffffffffffffffffffffffffffffffffffffffff1673ffffffffffffffffffffffffffffffffffffffff163373ffffffffffffffffffffffffffffffffffffffff16141515611bcb57600080fd5b7f343765429aea5a34b3ff6a3785a98a5abb2597aca87bfbb58632c173d585373a600460009054906101000a900473ffffffffffffffffffffffffffffffffffffffff16600560009054906101000a900473ffffffffffffffffffffffffffffffffffffffff16604051808373ffffffffffffffffffffffffffffffffffffffff1673ffffffffffffffffffffffffffffffffffffffff1681526020018273ffffffffffffffffffffffffffffffffffffffff1673ffffffffffffffffffffffffffffffffffffffff1681526020019250505060405180910390a1600560009054906101000a900473ffffffffffffffffffffffffffffffffffffffff16600460006101000a81548173ffffffffffffffffffffffffffffffffffffffff021916908373ffffffffffffffffffffffffffffffffffffffff1602179055506000600560006101000a81548173ffffffffffffffffffffffffffffffffffffffff021916908373ffffffffffffffffffffffffffffffffffffffff160217905550565b6000600460009054906101000a900473ffffffffffffffffffffffffffffffffffffffff1673ffffffffffffffffffffffffffffffffffffffff163373ffffffffffffffffffffffffffffffffffffffff16141515611dab57600080fd5b3373ffffffffffffffffffffffffffffffffffffffff168273ffffffffffffffffffffffffffffffffffffffff1614151515611de657600080fd5b6001600660008473ffffffffffffffffffffffffffffffffffffffff1673ffffffffffffffffffffffffffffffffffffffff16815260200190815260200160002060006101000a81548160ff02191690831515021790555060019050919050565b600080600060059150611e7d600c60009054906101000a900473ffffffffffffffffffffffffffffffffffffffff163384611802565b9050801515611e8b57600091505b819250505090565b600460009054906101000a900473ffffffffffffffffffffffffffffffffffffffff1681565b60003373ffffffffffffffffffffffffffffffffffffffff16600460009054906101000a900473ffffffffffffffffffffffffffffffffffffffff1673ffffffffffffffffffffffffffffffffffffffff1614905090565b6000600460009054906101000a900473ffffffffffffffffffffffffffffffffffffffff1673ffffffffffffffffffffffffffffffffffffffff163373ffffffffffffffffffffffffffffffffffffffff16141515611f6f57600080fd5b81600560156101000a81548160ff02191690831515021790555060019050919050565b60018054600181600116156101000203166002900480601f0160208091040260200160405190810160405280929190818152602001828054600181600116156101000203166002900480156120285780601f10611ffd57610100808354040283529160200191612028565b820191906000526020600020905b81548152906001019060200180831161200b57829003601f168201915b505050505081565b6000600460009054906101000a900473ffffffffffffffffffffffffffffffffffffffff1673ffffffffffffffffffffffffffffffffffffffff163373ffffffffffffffffffffffffffffffffffffffff1614151561208e57600080fd5b81600760008573ffffffffffffffffffffffffffffffffffffffff1673ffffffffffffffffffffffffffffffffffffffff16815260200190815260200160002060006101000a81548160ff0219169083151502179055506001905092915050565b6000601e600a60003373ffffffffffffffffffffffffffffffffffffffff1673ffffffffffffffffffffffffffffffffffffffff1681526020019081526020016000205401421015905090565b600460009054906101000a900473ffffffffffffffffffffffffffffffffffffffff1673ffffffffffffffffffffffffffffffffffffffff163373ffffffffffffffffffffffffffffffffffffffff1614151561219857600080fd5b600460009054906101000a900473ffffffffffffffffffffffffffffffffffffffff1673ffffffffffffffffffffffffffffffffffffffff168173ffffffffffffffffffffffffffffffffffffffff16141515156121f557600080fd5b80600560006101000a81548173ffffffffffffffffffffffffffffffffffffffff021916908373ffffffffffffffffffffffffffffffffffffffff16021790555050565b600033600760008273ffffffffffffffffffffffffffffffffffffffff1673ffffffffffffffffffffffffffffffffffffffff16815260200190815260200160002060009054906101000a900460ff1615156123ec57600560149054906101000a900460ff161515612313576040517f08c379a000000000000000000000000000000000000000000000000000000000815260040180806020018281038252601d8152602001807f7472616e73666572206973206e6f7420656e6162656c6564206e6f772100000081525060200191505060405180910390fd5b600560159054906101000a900460ff16156123eb57600660008273ffffffffffffffffffffffffffffffffffffffff1673ffffffffffffffffffffffffffffffffffffffff16815260200190815260200160002060009054906101000a900460ff161515156123ea576040517f08c379a000000000000000000000000000000000000000000000000000000000815260040180806020018281038252600f8152602001807f796f7520617265206c6f636b656421000000000000000000000000000000000081525060200191505060405180910390fd5b5b5b600073ffffffffffffffffffffffffffffffffffffffff168473ffffffffffffffffffffffffffffffffffffffff161415151561242857600080fd5b600860003373ffffffffffffffffffffffffffffffffffffffff1673ffffffffffffffffffffffffffffffffffffffff16815260200190815260200160002054831115151561247657600080fd5b6124c883600860003373ffffffffffffffffffffffffffffffffffffffff1673ffffffffffffffffffffffffffffffffffffffff16815260200190815260200160002054612c3f90919063ffffffff16565b600860003373ffffffffffffffffffffffffffffffffffffffff1673ffffffffffffffffffffffffffffffffffffffff1681526020019081526020016000208190555061255d83600860008773ffffffffffffffffffffffffffffffffffffffff1673ffffffffffffffffffffffffffffffffffffffff16815260200190815260200160002054612c5890919063ffffffff16565b600860008673ffffffffffffffffffffffffffffffffffffffff1673ffffffffffffffffffffffffffffffffffffffff168152602001908152602001600020819055508373ffffffffffffffffffffffffffffffffffffffff163373ffffffffffffffffffffffffffffffffffffffff167fddf252ad1be2c89b69c2b068fc378daa952ba7f163c4a11628f55a4df523b3ef856040518082815260200191505060405180910390a3600191505092915050565b60006060600080600b60003373ffffffffffffffffffffffffffffffffffffffff1673ffffffffffffffffffffffffffffffffffffffff16815260200190815260200160002060000154600b60003373ffffffffffffffffffffffffffffffffffffffff1673ffffffffffffffffffffffffffffffffffffffff168152602001908152602001600020600101600b60003373ffffffffffffffffffffffffffffffffffffffff1673ffffffffffffffffffffffffffffffffffffffff16815260200190815260200160002060020160009054906101000a900473ffffffffffffffffffffffffffffffffffffffff16600b60003373ffffffffffffffffffffffffffffffffffffffff1673ffffffffffffffffffffffffffffffffffffffff16815260200190815260200160002060030154828054600181600116156101000203166002900480601f0160208091040260200160405190810160405280929190818152602001828054600181600116156101000203166002900480156127d75780601f106127ac576101008083540402835291602001916127d7565b820191906000526020600020905b8154815290600101906020018083116127ba57829003601f168201915b50505050509250935093509350935090919293565b6000600960008473ffffffffffffffffffffffffffffffffffffffff1673ffffffffffffffffffffffffffffffffffffffff16815260200190815260200160002060008373ffffffffffffffffffffffffffffffffffffffff1673ffffffffffffffffffffffffffffffffffffffff16815260200190815260200160002054905092915050565b6000600460009054906101000a900473ffffffffffffffffffffffffffffffffffffffff1673ffffffffffffffffffffffffffffffffffffffff163373ffffffffffffffffffffffffffffffffffffffff161415156128d157600080fd5b81600560146101000a81548160ff02191690831515021790555060019050919050565b600060606000806001600b60003373ffffffffffffffffffffffffffffffffffffffff1673ffffffffffffffffffffffffffffffffffffffff1681526020019081526020016000206000018190555084600b60003373ffffffffffffffffffffffffffffffffffffffff1673ffffffffffffffffffffffffffffffffffffffff1681526020019081526020016000206001019080519060200190612999929190612c76565b5033600b60003373ffffffffffffffffffffffffffffffffffffffff1673ffffffffffffffffffffffffffffffffffffffff16815260200190815260200160002060020160006101000a81548173ffffffffffffffffffffffffffffffffffffffff021916908373ffffffffffffffffffffffffffffffffffffffff160217905550612a23610ed3565b600b60003373ffffffffffffffffffffffffffffffffffffffff1673ffffffffffffffffffffffffffffffffffffffff16815260200190815260200160002060030181905550600b60003373ffffffffffffffffffffffffffffffffffffffff1673ffffffffffffffffffffffffffffffffffffffff16815260200190815260200160002060000154600b60003373ffffffffffffffffffffffffffffffffffffffff1673ffffffffffffffffffffffffffffffffffffffff168152602001908152602001600020600101600b60003373ffffffffffffffffffffffffffffffffffffffff1673ffffffffffffffffffffffffffffffffffffffff16815260200190815260200160002060020160009054906101000a900473ffffffffffffffffffffffffffffffffffffffff16600b60003373ffffffffffffffffffffffffffffffffffffffff1673ffffffffffffffffffffffffffffffffffffffff16815260200190815260200160002060030154828054600181600116156101000203166002900480601f016020809104026020016040519081016040528092919081815260200182805460018160011615610100020316600290048015612c295780601f10612bfe57610100808354040283529160200191612c29565b820191906000526020600020905b815481529060010190602001808311612c0c57829003601f168201915b5050505050925093509350935093509193509193565b6000828211151515612c4d57fe5b818303905092915050565b6000808284019050838110151515612c6c57fe5b8091505092915050565b828054600181600116156101000203166002900490600052602060002090601f016020900481019282601f10612cb757805160ff1916838001178555612ce5565b82800160010185558215612ce5579182015b82811115612ce4578251825591602001919060010190612cc9565b5b509050612cf29190612cf6565b5090565b612d1891905b80821115612d14576000816000905550600101612cfc565b5090565b905600a165627a7a72305820081e92bd1895cdc25e9d99135f78b34d7ef884e6a177194586260389832216fd0029",
  "source": "// pragma solidity ^0.4.24;\r\npragma solidity ^0.4.16;\r\n/**\r\n * @title SafeMath\r\n * @dev Math operations with safety checks that throw on error\r\n   \r\n */\r\nlibrary SafeMath {\r\n  function mul(uint256 a, uint256 b) internal pure returns (uint256) {\r\n    uint256 c = a * b;\r\n    assert(a == 0 || c / a == b);\r\n    return c;\r\n  }\r\n \r\n  function div(uint256 a, uint256 b) internal pure returns (uint256) {\r\n    // assert(b > 0); // Solidity automatically throws when dividing by 0\r\n    uint256 c = a / b;\r\n    // assert(a == b * c + a % b); // There is no case in which this doesn't hold\r\n    return c;\r\n  }\r\n \r\n  function sub(uint256 a, uint256 b) internal pure returns (uint256) {\r\n    assert(b <= a);\r\n    return a - b;\r\n  }\r\n \r\n  function add(uint256 a, uint256 b) internal pure returns (uint256) {\r\n    uint256 c = a + b;\r\n    assert(c >= a);\r\n    return c;\r\n  }\r\n}\r\n \r\ncontract StandardToken {\r\n\t//SafeMath\r\n    using SafeMath for uint256;\r\n   \r\n    //\r\n    string public name;\r\n    //\r\n    string public symbol;\r\n\t//()\r\n    uint8 public  decimals;\r\n\t//\r\n\tuint256 public totalSupply;\r\n   \r\n\t//()_value_to\r\n    function transfer(address _to, uint256 _value) public returns (bool success);\r\n \r\n    //_from_value_to\r\n    function transferFrom(address _from, address _to, uint256 _value) public returns (bool success);\r\n \r\n\t//_value_spender_spendertransferFrom\r\n    function approve(address _spender, uint256 _value) public returns (bool success);\r\n \r\n\t//_spender_owner\r\n    function allowance(address _owner, address _spender) public constant returns (uint256 remaining);\r\n \r\n\t//\r\n    event Transfer(address indexed _from, address indexed _to, uint256 _value);\r\n\t//\r\n    event Approval(address indexed _owner, address indexed _spender, uint256 _value);\r\n}\r\n \r\n//\r\ncontract Owned {\r\n \r\n    // modifier()do somethingadministrator\r\n    modifier onlyOwner() {\r\n        require(msg.sender == owner);\r\n        _;//do something \r\n    }\r\n \r\n\t//\r\n    address public owner;\r\n \r\n\t//owner\r\n    constructor() public {\r\n        owner = msg.sender;\r\n    }\r\n\t//owner,null\r\n    address newOwner=0x0;\r\n \r\n    //owner\r\n    function isOwner() public constant returns (bool){\r\n        return owner==msg.sender;\r\n    }\r\n\r\n\t//owner\r\n    event OwnerUpdate(address _prevOwner, address _newOwner);\r\n \r\n    //ownerowner(owneracceptOwnership)\r\n    function changeOwner(address _newOwner) public onlyOwner {\r\n        require(_newOwner != owner);\r\n        newOwner = _newOwner;\r\n    }\r\n \r\n    //owner,\r\n    function acceptOwnership() public{\r\n        require(msg.sender == newOwner);\r\n        emit OwnerUpdate(owner, newOwner);\r\n        owner = newOwner;\r\n        newOwner = 0x0;\r\n    }\r\n}\r\n \r\n//\r\ncontract Controlled is Owned{\r\n \r\n\t//vip\r\n    constructor() public {\r\n       setExclude(msg.sender,true);\r\n    }\r\n \r\n    // true(excludetransferAllowed)\r\n    bool public transferEnabled = true;\r\n \r\n    // true\r\n    bool lockFlag=true;\r\n\t// addressbooltrue:lockFlag=true\r\n    mapping(address => bool) locked;\r\n\t// transferEnabledlockFlagvipbooltruevip\r\n    mapping(address => bool) exclude;\r\n \r\n\t//transferEnabled\r\n    function enableTransfer(bool _enable) public onlyOwner returns (bool success){\r\n        transferEnabled=_enable;\r\n\t\treturn true;\r\n    }\r\n \r\n\t//lockFlag\r\n    function disableLock(bool _enable) public onlyOwner returns (bool success){\r\n        lockFlag=_enable;\r\n        return true;\r\n    }\r\n \r\n\t// _addr\r\n    function addLock(address _addr) public onlyOwner returns (bool success){\r\n        require(_addr!=msg.sender);\r\n        locked[_addr]=true;\r\n        return true;\r\n    }\r\n \r\n\t//vip\r\n    function setExclude(address _addr,bool _enable) public onlyOwner returns (bool success){\r\n        exclude[_addr]=_enable;\r\n        return true;\r\n    }\r\n \r\n\t//_addr\r\n    function removeLock(address _addr) public onlyOwner returns (bool success){\r\n        locked[_addr]=false;\r\n        return true;\r\n    }\r\n\r\n\t// \r\n    modifier transferAllowed(address _addr) {\r\n        if (!exclude[_addr]) {\r\n            require(transferEnabled,\"transfer is not enabeled now!\");\r\n            if(lockFlag){\r\n                require(!locked[_addr],\"you are locked!\");\r\n            }\r\n        }\r\n        _;\r\n    }\r\n \r\n}\r\n \r\ncontract XiaomingToken is StandardToken,Controlled {\r\n \r\n\tmapping (address => uint256) public balanceOf;\r\n\tmapping (address => mapping (address => uint256)) internal allowed;\r\n    mapping (address => uint) public lastBonusTime;\r\n\t\r\n\tconstructor() public {\r\n        totalSupply = 1000000000;\r\n        name = \"Xiaoming Token\";\r\n        symbol = \"MB\";\r\n        decimals = 0;\r\n        balanceOf[msg.sender] = totalSupply;\r\n    }\r\n \r\n    function transfer(address _to, uint256 _value) public transferAllowed(msg.sender) returns (bool success) {\r\n\t\trequire(_to != address(0));\r\n\t\trequire(_value <= balanceOf[msg.sender]);\r\n \r\n        balanceOf[msg.sender] = balanceOf[msg.sender].sub(_value);\r\n        balanceOf[_to] = balanceOf[_to].add(_value);\r\n        emit Transfer(msg.sender, _to, _value);\r\n        return true;\r\n    }\r\n \r\n    function transferFrom(address _from, address _to, uint256 _value) public transferAllowed(_from) returns (bool success) {\r\n\t\trequire(_to != address(0));\r\n        require(_value <= balanceOf[_from]);\r\n        require(_value <= allowed[_from][msg.sender]);\r\n \r\n        balanceOf[_from] = balanceOf[_from].sub(_value);\r\n        balanceOf[_to] = balanceOf[_to].add(_value);\r\n        allowed[_from][msg.sender] = allowed[_from][msg.sender].sub(_value);\r\n        emit Transfer(_from, _to, _value);\r\n        return true;\r\n    }\r\n \r\n    function approve(address _spender, uint256 _value) public returns (bool success) {\r\n        allowed[msg.sender][_spender] = _value;\r\n        emit Approval(msg.sender, _spender, _value);\r\n        return true;\r\n    }\r\n \r\n    function allowance(address _owner, address _spender) public view returns (uint256 remaining) {\r\n        return allowed[_owner][_spender];\r\n    }\r\n\r\n    //game \r\n    function sendBonus(address _from, address _to, uint256 _value) public returns (bool success) {\r\n        require(_to != address(0));\r\n        require(_value <= balanceOf[_from]);\r\n        require(now >= (lastBonusTime[_to] + 30 seconds));\r\n\r\n        balanceOf[_from] = balanceOf[_from].sub(_value);\r\n        balanceOf[_to] = balanceOf[_to].add(_value);\r\n        lastBonusTime[_to] = now;\r\n        emit Transfer(_from, _to, _value);\r\n        return true;\r\n    }\r\n    \r\n \r\n}\r\n\r\ncontract GambelGame is XiaomingToken{\r\n\r\n    mapping(address => Player) internal players;\r\n    address internal gameBankAddress;\r\n    // address internal gameBankAddress = 0x41786fc0Cc8B14De336701d819501c46dAFAC1a8;//0x41786fc0Cc8B14De336701d819501c46dAFAC1a8,0x0572dA3eADf083C3CEb9f33cF09C0B37E5EF8211\r\n\r\n\r\n    constructor() public {\r\n        //owner = msg.sender;\r\n        gameBankAddress = msg.sender;\r\n    }\r\n\r\n    //\r\n    function register(string memory username)public returns (uint,string,address,uint){\r\n        players[msg.sender].id = 1;\r\n        players[msg.sender].name = username;\r\n        players[msg.sender].addr = msg.sender;\r\n        players[msg.sender].balance = getBalance();\r\n\r\n        return (players[msg.sender].id,players[msg.sender].name,players[msg.sender].addr,players[msg.sender].balance);\r\n    }\r\n\r\n    //\r\n    function login(string memory username)public returns (uint,string,address,uint){\r\n        \r\n        return (players[msg.sender].id,players[msg.sender].name,players[msg.sender].addr,players[msg.sender].balance);\r\n    }\r\n    //\r\n    function checkLogin(address playerAddress) public constant returns (bool){\r\n        return players[playerAddress].addr != 0x0000000000000000000000000000000000000000;\r\n    }\r\n    //\r\n    function getPlayInfo()public constant returns(uint,string,address,uint){\r\n        return (players[msg.sender].id,players[msg.sender].name,players[msg.sender].addr,players[msg.sender].balance);\r\n    }\r\n\r\n    \r\n    //\r\n    //\r\n    // \"0x1894881F2C1131c21bb62945f7512ddb273E9037\",\"0x0eA45B1EB39d70C77F106D42655811E11D4B6a74\",100000\r\n    function getBonus() public returns (uint){\r\n        // transferFrom(owner,msg.sender,this.allowance(owner,msg.sender));\r\n        uint bonus = 5;\r\n\r\n        bool isSuccess = sendBonus(gameBankAddress,msg.sender,bonus);\r\n        if (!isSuccess) bonus = 0;\r\n        return bonus;\r\n    }\r\n\r\n    function checkBonus() public constant returns (bool){\r\n        \r\n        return now >= (lastBonusTime[msg.sender] + 30 seconds);\r\n    }\r\n\r\n    //\r\n    function join(uint amount) public returns (bool){\r\n        require(amount < msg.sender.balance);\r\n        transferFrom(msg.sender,gameBankAddress,amount);\r\n        return true;\r\n    }\r\n\r\n    function getBalance() public constant returns (uint){\r\n        return this.balanceOf(msg.sender);\r\n    }    \r\n\r\n    //\r\n    \r\n\r\n\r\n    struct Player{\r\n        uint id;\r\n        string name;\r\n        address addr;\r\n        uint balance;\r\n    }\r\n}",
  "sourcePath": "D:\\developenv\\workspace\\eth\\BlockChainExample\\gamblegame\\contracts\\GambleToken.sol",
  "compiler": {
    "name": "solc",
    "version": "0.4.23+commit.124ca40d.Emscripten.clang"
  },
  "schemaVersion": "2.0.0",
  "updatedAt": "2019-09-09T07:32:47.129Z"
}